{
  "contractName": "staking_dapp",
  "abi": [
    {
      "inputs": [
        {
          "internalType": "contract Dummy_Token",
          "name": "_dummy_token",
          "type": "address"
        },
        {
          "internalType": "contract Tether_Token",
          "name": "_tether_token",
          "type": "address"
        }
      ],
      "stateMutability": "nonpayable",
      "type": "constructor"
    },
    {
      "inputs": [],
      "name": "dummy_token",
      "outputs": [
        {
          "internalType": "contract Dummy_Token",
          "name": "",
          "type": "address"
        }
      ],
      "stateMutability": "view",
      "type": "function",
      "constant": true
    },
    {
      "inputs": [
        {
          "internalType": "address",
          "name": "",
          "type": "address"
        }
      ],
      "name": "hasstaked",
      "outputs": [
        {
          "internalType": "bool",
          "name": "",
          "type": "bool"
        }
      ],
      "stateMutability": "view",
      "type": "function",
      "constant": true
    },
    {
      "inputs": [
        {
          "internalType": "address",
          "name": "",
          "type": "address"
        }
      ],
      "name": "isstaked",
      "outputs": [
        {
          "internalType": "bool",
          "name": "",
          "type": "bool"
        }
      ],
      "stateMutability": "view",
      "type": "function",
      "constant": true
    },
    {
      "inputs": [],
      "name": "name",
      "outputs": [
        {
          "internalType": "string",
          "name": "",
          "type": "string"
        }
      ],
      "stateMutability": "view",
      "type": "function",
      "constant": true
    },
    {
      "inputs": [],
      "name": "owner",
      "outputs": [
        {
          "internalType": "address",
          "name": "",
          "type": "address"
        }
      ],
      "stateMutability": "view",
      "type": "function",
      "constant": true
    },
    {
      "inputs": [
        {
          "internalType": "uint256",
          "name": "",
          "type": "uint256"
        }
      ],
      "name": "stakers",
      "outputs": [
        {
          "internalType": "address",
          "name": "",
          "type": "address"
        }
      ],
      "stateMutability": "view",
      "type": "function",
      "constant": true
    },
    {
      "inputs": [
        {
          "internalType": "address",
          "name": "",
          "type": "address"
        }
      ],
      "name": "stakingbalance",
      "outputs": [
        {
          "internalType": "uint256",
          "name": "",
          "type": "uint256"
        }
      ],
      "stateMutability": "view",
      "type": "function",
      "constant": true
    },
    {
      "inputs": [],
      "name": "tether_token",
      "outputs": [
        {
          "internalType": "contract Tether_Token",
          "name": "",
          "type": "address"
        }
      ],
      "stateMutability": "view",
      "type": "function",
      "constant": true
    },
    {
      "inputs": [
        {
          "internalType": "uint256",
          "name": "_amount",
          "type": "uint256"
        }
      ],
      "name": "stakeTokens",
      "outputs": [],
      "stateMutability": "nonpayable",
      "type": "function"
    },
    {
      "inputs": [],
      "name": "unstakeTokens",
      "outputs": [],
      "stateMutability": "nonpayable",
      "type": "function"
    },
    {
      "inputs": [],
      "name": "issueDummy",
      "outputs": [],
      "stateMutability": "nonpayable",
      "type": "function"
    }
  ],
  "bytecode": "0x60806040526040518060400160405280600c81526020017f7374616b696e675f646170700000000000000000000000000000000000000000815250600090805190602001906200005192919062000150565b503480156200005f57600080fd5b50604051620014d2380380620014d28339818101604052810190620000859190620002c3565b81600260006101000a81548173ffffffffffffffffffffffffffffffffffffffff021916908373ffffffffffffffffffffffffffffffffffffffff16021790555080600360006101000a81548173ffffffffffffffffffffffffffffffffffffffff021916908373ffffffffffffffffffffffffffffffffffffffff16021790555033600160006101000a81548173ffffffffffffffffffffffffffffffffffffffff021916908373ffffffffffffffffffffffffffffffffffffffff16021790555050506200036f565b8280546200015e9062000339565b90600052602060002090601f016020900481019282620001825760008555620001ce565b82601f106200019d57805160ff1916838001178555620001ce565b82800160010185558215620001ce579182015b82811115620001cd578251825591602001919060010190620001b0565b5b509050620001dd9190620001e1565b5090565b5b80821115620001fc576000816000905550600101620001e2565b5090565b600080fd5b600073ffffffffffffffffffffffffffffffffffffffff82169050919050565b6000620002328262000205565b9050919050565b6000620002468262000225565b9050919050565b620002588162000239565b81146200026457600080fd5b50565b60008151905062000278816200024d565b92915050565b60006200028b8262000225565b9050919050565b6200029d816200027e565b8114620002a957600080fd5b50565b600081519050620002bd8162000292565b92915050565b60008060408385031215620002dd57620002dc62000200565b5b6000620002ed8582860162000267565b92505060206200030085828601620002ac565b9150509250929050565b7f4e487b7100000000000000000000000000000000000000000000000000000000600052602260045260246000fd5b600060028204905060018216806200035257607f821691505b602082108114156200036957620003686200030a565b5b50919050565b611153806200037f6000396000f3fe608060405234801561001057600080fd5b50600436106100a95760003560e01c80638da5cb5b116100715780638da5cb5b1461014057806390332cd71461015e578063a5ce413b1461018e578063f9075fc614610198578063fd3343ac146101b6578063fd5e6dd1146101e6576100a9565b806306fdde03146100ae57806330685185146100cc5780634749daaa146100d65780637547c7a31461010657806389c95e9814610122575b600080fd5b6100b6610216565b6040516100c39190610b0d565b60405180910390f35b6100d46102a4565b005b6100f060048036038101906100eb9190610b92565b6104a9565b6040516100fd9190610bd8565b60405180910390f35b610120600480360381019061011b9190610c1f565b6104c1565b005b61012a6107ac565b6040516101379190610cab565b60405180910390f35b6101486107d2565b6040516101559190610cd5565b60405180910390f35b61017860048036038101906101739190610b92565b6107f8565b6040516101859190610d0b565b60405180910390f35b610196610818565b005b6101a06109ef565b6040516101ad9190610d47565b60405180910390f35b6101d060048036038101906101cb9190610b92565b610a15565b6040516101dd9190610d0b565b60405180910390f35b61020060048036038101906101fb9190610c1f565b610a35565b60405161020d9190610cd5565b60405180910390f35b6000805461022390610d91565b80601f016020809104026020016040519081016040528092919081815260200182805461024f90610d91565b801561029c5780601f106102715761010080835404028352916020019161029c565b820191906000526020600020905b81548152906001019060200180831161027f57829003601f168201915b505050505081565b600160009054906101000a900473ffffffffffffffffffffffffffffffffffffffff1673ffffffffffffffffffffffffffffffffffffffff163373ffffffffffffffffffffffffffffffffffffffff1614610334576040517f08c379a000000000000000000000000000000000000000000000000000000000815260040161032b90610e0f565b60405180910390fd5b60005b6004805490508110156104a65760006004828154811061035a57610359610e2f565b5b9060005260206000200160009054906101000a900473ffffffffffffffffffffffffffffffffffffffff16905060006009600560008473ffffffffffffffffffffffffffffffffffffffff1673ffffffffffffffffffffffffffffffffffffffff168152602001908152602001600020546103d59190610ebc565b9050600081111561049157600260009054906101000a900473ffffffffffffffffffffffffffffffffffffffff1673ffffffffffffffffffffffffffffffffffffffff1663a9059cbb83836040518363ffffffff1660e01b815260040161043d929190610eed565b602060405180830381600087803b15801561045757600080fd5b505af115801561046b573d6000803e3d6000fd5b505050506040513d601f19601f8201168201806040525081019061048f9190610f42565b505b5050808061049e90610f6f565b915050610337565b50565b60056020528060005260406000206000915090505481565b60008111610504576040517f08c379a00000000000000000000000000000000000000000000000000000000081526004016104fb90611004565b60405180910390fd5b600260009054906101000a900473ffffffffffffffffffffffffffffffffffffffff1673ffffffffffffffffffffffffffffffffffffffff166323b872dd3330846040518463ffffffff1660e01b815260040161056393929190611024565b602060405180830381600087803b15801561057d57600080fd5b505af1158015610591573d6000803e3d6000fd5b505050506040513d601f19601f820116820180604052508101906105b59190610f42565b5080600560003373ffffffffffffffffffffffffffffffffffffffff1673ffffffffffffffffffffffffffffffffffffffff16815260200190815260200160002054610601919061105b565b600560003373ffffffffffffffffffffffffffffffffffffffff1673ffffffffffffffffffffffffffffffffffffffff16815260200190815260200160002081905550600660003373ffffffffffffffffffffffffffffffffffffffff1673ffffffffffffffffffffffffffffffffffffffff16815260200190815260200160002060009054906101000a900460ff166106f9576004339080600181540180825580915050600190039060005260206000200160009091909190916101000a81548173ffffffffffffffffffffffffffffffffffffffff021916908373ffffffffffffffffffffffffffffffffffffffff1602179055505b6001600760003373ffffffffffffffffffffffffffffffffffffffff1673ffffffffffffffffffffffffffffffffffffffff16815260200190815260200160002060006101000a81548160ff0219169083151502179055506001600660003373ffffffffffffffffffffffffffffffffffffffff1673ffffffffffffffffffffffffffffffffffffffff16815260200190815260200160002060006101000a81548160ff02191690831515021790555050565b600360009054906101000a900473ffffffffffffffffffffffffffffffffffffffff1681565b600160009054906101000a900473ffffffffffffffffffffffffffffffffffffffff1681565b60066020528060005260406000206000915054906101000a900460ff1681565b6000600560003373ffffffffffffffffffffffffffffffffffffffff1673ffffffffffffffffffffffffffffffffffffffff1681526020019081526020016000205490506000811161089f576040517f08c379a0000000000000000000000000000000000000000000000000000000008152600401610896906110fd565b60405180910390fd5b600260009054906101000a900473ffffffffffffffffffffffffffffffffffffffff1673ffffffffffffffffffffffffffffffffffffffff1663a9059cbb33836040518363ffffffff1660e01b81526004016108fc929190610eed565b602060405180830381600087803b15801561091657600080fd5b505af115801561092a573d6000803e3d6000fd5b505050506040513d601f19601f8201168201806040525081019061094e9190610f42565b506000600560003373ffffffffffffffffffffffffffffffffffffffff1673ffffffffffffffffffffffffffffffffffffffff168152602001908152602001600020819055506000600760003373ffffffffffffffffffffffffffffffffffffffff1673ffffffffffffffffffffffffffffffffffffffff16815260200190815260200160002060006101000a81548160ff02191690831515021790555050565b600260009054906101000a900473ffffffffffffffffffffffffffffffffffffffff1681565b60076020528060005260406000206000915054906101000a900460ff1681565b60048181548110610a4557600080fd5b906000526020600020016000915054906101000a900473ffffffffffffffffffffffffffffffffffffffff1681565b600081519050919050565b600082825260208201905092915050565b60005b83811015610aae578082015181840152602081019050610a93565b83811115610abd576000848401525b50505050565b6000601f19601f8301169050919050565b6000610adf82610a74565b610ae98185610a7f565b9350610af9818560208601610a90565b610b0281610ac3565b840191505092915050565b60006020820190508181036000830152610b278184610ad4565b905092915050565b600080fd5b600073ffffffffffffffffffffffffffffffffffffffff82169050919050565b6000610b5f82610b34565b9050919050565b610b6f81610b54565b8114610b7a57600080fd5b50565b600081359050610b8c81610b66565b92915050565b600060208284031215610ba857610ba7610b2f565b5b6000610bb684828501610b7d565b91505092915050565b6000819050919050565b610bd281610bbf565b82525050565b6000602082019050610bed6000830184610bc9565b92915050565b610bfc81610bbf565b8114610c0757600080fd5b50565b600081359050610c1981610bf3565b92915050565b600060208284031215610c3557610c34610b2f565b5b6000610c4384828501610c0a565b91505092915050565b6000819050919050565b6000610c71610c6c610c6784610b34565b610c4c565b610b34565b9050919050565b6000610c8382610c56565b9050919050565b6000610c9582610c78565b9050919050565b610ca581610c8a565b82525050565b6000602082019050610cc06000830184610c9c565b92915050565b610ccf81610b54565b82525050565b6000602082019050610cea6000830184610cc6565b92915050565b60008115159050919050565b610d0581610cf0565b82525050565b6000602082019050610d206000830184610cfc565b92915050565b6000610d3182610c78565b9050919050565b610d4181610d26565b82525050565b6000602082019050610d5c6000830184610d38565b92915050565b7f4e487b7100000000000000000000000000000000000000000000000000000000600052602260045260246000fd5b60006002820490506001821680610da957607f821691505b60208210811415610dbd57610dbc610d62565b5b50919050565b7f63616c6c6572206d75737420626520746865206f776e65720000000000000000600082015250565b6000610df9601883610a7f565b9150610e0482610dc3565b602082019050919050565b60006020820190508181036000830152610e2881610dec565b9050919050565b7f4e487b7100000000000000000000000000000000000000000000000000000000600052603260045260246000fd5b7f4e487b7100000000000000000000000000000000000000000000000000000000600052601260045260246000fd5b7f4e487b7100000000000000000000000000000000000000000000000000000000600052601160045260246000fd5b6000610ec782610bbf565b9150610ed283610bbf565b925082610ee257610ee1610e5e565b5b828204905092915050565b6000604082019050610f026000830185610cc6565b610f0f6020830184610bc9565b9392505050565b610f1f81610cf0565b8114610f2a57600080fd5b50565b600081519050610f3c81610f16565b92915050565b600060208284031215610f5857610f57610b2f565b5b6000610f6684828501610f2d565b91505092915050565b6000610f7a82610bbf565b91507fffffffffffffffffffffffffffffffffffffffffffffffffffffffffffffffff821415610fad57610fac610e8d565b5b600182019050919050565b7f616d6f756e742063616e6e6f7420626520300000000000000000000000000000600082015250565b6000610fee601283610a7f565b9150610ff982610fb8565b602082019050919050565b6000602082019050818103600083015261101d81610fe1565b9050919050565b60006060820190506110396000830186610cc6565b6110466020830185610cc6565b6110536040830184610bc9565b949350505050565b600061106682610bbf565b915061107183610bbf565b9250827fffffffffffffffffffffffffffffffffffffffffffffffffffffffffffffffff038211156110a6576110a5610e8d565b5b828201905092915050565b7f7374616b696e672062616c616e63652063616e6e6f7420626520300000000000600082015250565b60006110e7601b83610a7f565b91506110f2826110b1565b602082019050919050565b60006020820190508181036000830152611116816110da565b905091905056fea26469706673582212205c7d7e6fd1d3e9424c35e40a478d2c5614b7a7710b39ee7686b52a0ac62c65cd64736f6c63430008090033",
  "immutableReferences": {},
  "source": "// SPDX-License-Identifier: MIT\n\npragma solidity >= 0.4.22 < 0.9.0;\n\nimport \"./Dummy_token.sol\";\nimport \"./Tether_token.sol\";\n\ncontract staking_dapp{\n\tstring public name = \"staking_dapp\";\n\taddress public owner;\n\tDummy_Token public dummy_token;\n\tTether_Token public tether_token;\n\n\taddress[] public stakers;\n\tmapping(address => uint) public stakingbalance;\n\tmapping(address => bool) public hasstaked;\n\tmapping(address => bool) public isstaked;\n\n\tconstructor(Dummy_Token _dummy_token, Tether_Token _tether_token) {\n\t\tdummy_token = _dummy_token;\n\t\ttether_token = _tether_token;\n\t\towner = msg.sender;\n\t}\n\n\tfunction stakeTokens(uint _amount) public{\n\t\trequire(_amount > 0, \"amount cannot be 0\");\n\t\tdummy_token.transferFrom(msg.sender, address(this), _amount);\n\t\tstakingbalance[msg.sender] = stakingbalance[msg.sender] + _amount;\n\t\tif(!hasstaked[msg.sender]){\n\t\t\tstakers.push(msg.sender);\n\t\t}\n\t\tisstaked[msg.sender] = true;\n\t\thasstaked[msg.sender] = true;\n\t}\n\n\tfunction unstakeTokens() public{\n\t\tuint balance = stakingbalance[msg.sender];\n\t\trequire(balance > 0, \"staking balance cannot be 0\");\n\t\tdummy_token.transfer(msg.sender, balance);\n\t\tstakingbalance[msg.sender] = 0;\n\t\tisstaked[msg.sender] = false;\n\t}\n\n\tfunction issueDummy() public{\n\t\trequire(msg.sender == owner, \"caller must be the owner\");\n\t\tfor(uint i=0; i<stakers.length; i++){\n\t\t\taddress recipient = stakers[i];\n\t\t\tuint balance = stakingbalance[recipient] / 9;\n\t\t\tif(balance > 0){\n\t\t\t\tdummy_token.transfer(recipient, balance);\n\t\t\t}\n\t\t}\n\t}\n}",
  "sourcePath": "/Users/robelkedida/Documents/Blockchain-Projects/staking_dapp_/src/contracts/staking_dapp.sol",
  "compiler": {
    "name": "solc",
    "version": "0.8.9+commit.e5eed63a.Emscripten.clang"
  },
  "schemaVersion": "3.4.14",
  "updatedAt": "2023-07-03T13:07:24.869Z",
  "networkType": "ethereum",
  "devdoc": {
    "kind": "dev",
    "methods": {},
    "version": 1
  },
  "userdoc": {
    "kind": "user",
    "methods": {},
    "version": 1
  }
}