{
  "contractName": "Tether_Token",
  "abi": [
    {
      "inputs": [],
      "stateMutability": "nonpayable",
      "type": "constructor"
    },
    {
      "anonymous": false,
      "inputs": [
        {
          "indexed": true,
          "internalType": "address",
          "name": "_owner",
          "type": "address"
        },
        {
          "indexed": true,
          "internalType": "address",
          "name": "_spender",
          "type": "address"
        },
        {
          "indexed": false,
          "internalType": "uint256",
          "name": "_value",
          "type": "uint256"
        }
      ],
      "name": "Approve",
      "type": "event"
    },
    {
      "anonymous": false,
      "inputs": [
        {
          "indexed": true,
          "internalType": "address",
          "name": "_from",
          "type": "address"
        },
        {
          "indexed": true,
          "internalType": "address",
          "name": "_to",
          "type": "address"
        },
        {
          "indexed": false,
          "internalType": "uint256",
          "name": "_value",
          "type": "uint256"
        }
      ],
      "name": "Transfer",
      "type": "event"
    },
    {
      "inputs": [
        {
          "internalType": "address",
          "name": "",
          "type": "address"
        },
        {
          "internalType": "address",
          "name": "",
          "type": "address"
        }
      ],
      "name": "allowance",
      "outputs": [
        {
          "internalType": "uint256",
          "name": "",
          "type": "uint256"
        }
      ],
      "stateMutability": "view",
      "type": "function",
      "constant": true
    },
    {
      "inputs": [
        {
          "internalType": "address",
          "name": "",
          "type": "address"
        }
      ],
      "name": "balanceOf",
      "outputs": [
        {
          "internalType": "uint256",
          "name": "",
          "type": "uint256"
        }
      ],
      "stateMutability": "view",
      "type": "function",
      "constant": true
    },
    {
      "inputs": [],
      "name": "decimals",
      "outputs": [
        {
          "internalType": "uint256",
          "name": "",
          "type": "uint256"
        }
      ],
      "stateMutability": "view",
      "type": "function",
      "constant": true
    },
    {
      "inputs": [],
      "name": "name",
      "outputs": [
        {
          "internalType": "string",
          "name": "",
          "type": "string"
        }
      ],
      "stateMutability": "view",
      "type": "function",
      "constant": true
    },
    {
      "inputs": [],
      "name": "symbol",
      "outputs": [
        {
          "internalType": "string",
          "name": "",
          "type": "string"
        }
      ],
      "stateMutability": "view",
      "type": "function",
      "constant": true
    },
    {
      "inputs": [
        {
          "internalType": "address",
          "name": "_to",
          "type": "address"
        },
        {
          "internalType": "uint256",
          "name": "_value",
          "type": "uint256"
        }
      ],
      "name": "transfer",
      "outputs": [
        {
          "internalType": "bool",
          "name": "success",
          "type": "bool"
        }
      ],
      "stateMutability": "nonpayable",
      "type": "function"
    },
    {
      "inputs": [
        {
          "internalType": "address",
          "name": "_spender",
          "type": "address"
        },
        {
          "internalType": "uint256",
          "name": "_value",
          "type": "uint256"
        }
      ],
      "name": "approve",
      "outputs": [
        {
          "internalType": "bool",
          "name": "success",
          "type": "bool"
        }
      ],
      "stateMutability": "nonpayable",
      "type": "function"
    },
    {
      "inputs": [
        {
          "internalType": "address",
          "name": "_from",
          "type": "address"
        },
        {
          "internalType": "address",
          "name": "_to",
          "type": "address"
        },
        {
          "internalType": "uint256",
          "name": "_value",
          "type": "uint256"
        }
      ],
      "name": "transferFrom",
      "outputs": [
        {
          "internalType": "bool",
          "name": "success",
          "type": "bool"
        }
      ],
      "stateMutability": "nonpayable",
      "type": "function"
    }
  ],
  "bytecode": "0x60806040526040518060400160405280601281526020017f64756d6d792054657468657220546f6b656e000000000000000000000000000081525060009080519060200190620000519291906200010c565b506040518060400160405280600681526020017f5465746865720000000000000000000000000000000000000000000000000000815250600190805190602001906200009f9291906200010c565b5068056bc75e2d631000006002556012600355348015620000bf57600080fd5b50600254600460003373ffffffffffffffffffffffffffffffffffffffff1673ffffffffffffffffffffffffffffffffffffffff1681526020019081526020016000208190555062000221565b8280546200011a90620001eb565b90600052602060002090601f0160209004810192826200013e57600085556200018a565b82601f106200015957805160ff19168380011785556200018a565b828001600101855582156200018a579182015b82811115620001895782518255916020019190600101906200016c565b5b5090506200019991906200019d565b5090565b5b80821115620001b85760008160009055506001016200019e565b5090565b7f4e487b7100000000000000000000000000000000000000000000000000000000600052602260045260246000fd5b600060028204905060018216806200020457607f821691505b602082108114156200021b576200021a620001bc565b5b50919050565b610c1b80620002316000396000f3fe608060405234801561001057600080fd5b50600436106100885760003560e01c806370a082311161005b57806370a082311461012957806395d89b4114610159578063a9059cbb14610177578063dd62ed3e146101a757610088565b806306fdde031461008d578063095ea7b3146100ab57806323b872dd146100db578063313ce5671461010b575b600080fd5b6100956101d7565b6040516100a291906108b0565b60405180910390f35b6100c560048036038101906100c0919061096b565b610265565b6040516100d291906109c6565b60405180910390f35b6100f560048036038101906100f091906109e1565b610357565b60405161010291906109c6565b60405180910390f35b6101136105dd565b6040516101209190610a43565b60405180910390f35b610143600480360381019061013e9190610a5e565b6105e3565b6040516101509190610a43565b60405180910390f35b6101616105fb565b60405161016e91906108b0565b60405180910390f35b610191600480360381019061018c919061096b565b610689565b60405161019e91906109c6565b60405180910390f35b6101c160048036038101906101bc9190610a8b565b6107f2565b6040516101ce9190610a43565b60405180910390f35b600080546101e490610afa565b80601f016020809104026020016040519081016040528092919081815260200182805461021090610afa565b801561025d5780601f106102325761010080835404028352916020019161025d565b820191906000526020600020905b81548152906001019060200180831161024057829003601f168201915b505050505081565b600081600560003373ffffffffffffffffffffffffffffffffffffffff1673ffffffffffffffffffffffffffffffffffffffff16815260200190815260200160002060008573ffffffffffffffffffffffffffffffffffffffff1673ffffffffffffffffffffffffffffffffffffffff168152602001908152602001600020819055508273ffffffffffffffffffffffffffffffffffffffff163373ffffffffffffffffffffffffffffffffffffffff167f6e11fb1b7f119e3f2fa29896ef5fdf8b8a2d0d4df6fe90ba8668e7d8b2ffa25e846040516103459190610a43565b60405180910390a36001905092915050565b6000600460008573ffffffffffffffffffffffffffffffffffffffff1673ffffffffffffffffffffffffffffffffffffffff168152602001908152602001600020548211156103a557600080fd5b600560008573ffffffffffffffffffffffffffffffffffffffff1673ffffffffffffffffffffffffffffffffffffffff16815260200190815260200160002060003373ffffffffffffffffffffffffffffffffffffffff1673ffffffffffffffffffffffffffffffffffffffff1681526020019081526020016000205482111561042e57600080fd5b81600460008673ffffffffffffffffffffffffffffffffffffffff1673ffffffffffffffffffffffffffffffffffffffff168152602001908152602001600020600082825461047d9190610b5b565b9250508190555081600460008573ffffffffffffffffffffffffffffffffffffffff1673ffffffffffffffffffffffffffffffffffffffff16815260200190815260200160002060008282546104d39190610b8f565b9250508190555081600560008673ffffffffffffffffffffffffffffffffffffffff1673ffffffffffffffffffffffffffffffffffffffff16815260200190815260200160002060003373ffffffffffffffffffffffffffffffffffffffff1673ffffffffffffffffffffffffffffffffffffffff16815260200190815260200160002060008282546105669190610b5b565b925050819055508273ffffffffffffffffffffffffffffffffffffffff168473ffffffffffffffffffffffffffffffffffffffff167fddf252ad1be2c89b69c2b068fc378daa952ba7f163c4a11628f55a4df523b3ef846040516105ca9190610a43565b60405180910390a3600190509392505050565b60035481565b60046020528060005260406000206000915090505481565b6001805461060890610afa565b80601f016020809104026020016040519081016040528092919081815260200182805461063490610afa565b80156106815780601f1061065657610100808354040283529160200191610681565b820191906000526020600020905b81548152906001019060200180831161066457829003601f168201915b505050505081565b600081600460003373ffffffffffffffffffffffffffffffffffffffff1673ffffffffffffffffffffffffffffffffffffffff1681526020019081526020016000205410156106d757600080fd5b81600460003373ffffffffffffffffffffffffffffffffffffffff1673ffffffffffffffffffffffffffffffffffffffff16815260200190815260200160002060008282546107269190610b5b565b9250508190555081600460008573ffffffffffffffffffffffffffffffffffffffff1673ffffffffffffffffffffffffffffffffffffffff168152602001908152602001600020600082825461077c9190610b8f565b925050819055508273ffffffffffffffffffffffffffffffffffffffff163373ffffffffffffffffffffffffffffffffffffffff167fddf252ad1be2c89b69c2b068fc378daa952ba7f163c4a11628f55a4df523b3ef846040516107e09190610a43565b60405180910390a36001905092915050565b6005602052816000526040600020602052806000526040600020600091509150505481565b600081519050919050565b600082825260208201905092915050565b60005b83811015610851578082015181840152602081019050610836565b83811115610860576000848401525b50505050565b6000601f19601f8301169050919050565b600061088282610817565b61088c8185610822565b935061089c818560208601610833565b6108a581610866565b840191505092915050565b600060208201905081810360008301526108ca8184610877565b905092915050565b600080fd5b600073ffffffffffffffffffffffffffffffffffffffff82169050919050565b6000610902826108d7565b9050919050565b610912816108f7565b811461091d57600080fd5b50565b60008135905061092f81610909565b92915050565b6000819050919050565b61094881610935565b811461095357600080fd5b50565b6000813590506109658161093f565b92915050565b60008060408385031215610982576109816108d2565b5b600061099085828601610920565b92505060206109a185828601610956565b9150509250929050565b60008115159050919050565b6109c0816109ab565b82525050565b60006020820190506109db60008301846109b7565b92915050565b6000806000606084860312156109fa576109f96108d2565b5b6000610a0886828701610920565b9350506020610a1986828701610920565b9250506040610a2a86828701610956565b9150509250925092565b610a3d81610935565b82525050565b6000602082019050610a586000830184610a34565b92915050565b600060208284031215610a7457610a736108d2565b5b6000610a8284828501610920565b91505092915050565b60008060408385031215610aa257610aa16108d2565b5b6000610ab085828601610920565b9250506020610ac185828601610920565b9150509250929050565b7f4e487b7100000000000000000000000000000000000000000000000000000000600052602260045260246000fd5b60006002820490506001821680610b1257607f821691505b60208210811415610b2657610b25610acb565b5b50919050565b7f4e487b7100000000000000000000000000000000000000000000000000000000600052601160045260246000fd5b6000610b6682610935565b9150610b7183610935565b925082821015610b8457610b83610b2c565b5b828203905092915050565b6000610b9a82610935565b9150610ba583610935565b9250827fffffffffffffffffffffffffffffffffffffffffffffffffffffffffffffffff03821115610bda57610bd9610b2c565b5b82820190509291505056fea264697066735822122054481aa8aad10fb3d138c51a9f0099f132281c179013f370ad41f502a5d12e7e64736f6c63430008090033",
  "immutableReferences": {},
  "source": "// SPDX-License-Identifier: MIT\n\npragma solidity >= 0.4.22 < 0.9.0;\n\ncontract Tether_Token{\n\tstring public name = \"dummy Tether Token\";\n\tstring public symbol = \"Tether\";\n\tuint totalSupply = 100 * 10 ** 18;\n\tuint public decimals = 18;\n\n\tevent Transfer(\n\t\taddress indexed _from,\n\t\taddress indexed _to,\n\t\tuint _value\n\t);\n\n\tevent Approve(\n\t\taddress indexed _owner,\n\t\taddress indexed _spender,\n\t\tuint _value\n\t);\n\n\tmapping(address => uint) public balanceOf;\n\tmapping(address => mapping(address => uint)) public allowance;\n\n\tconstructor(){\n\t\tbalanceOf[msg.sender] = totalSupply;\n\t}\n\n\tfunction transfer(address _to, uint256 _value) public returns(bool success){\n\t\trequire(balanceOf[msg.sender] >= _value);\n\t\tbalanceOf[msg.sender] -= _value;\n\t\tbalanceOf[_to] += _value;\n\t\temit Transfer(msg.sender, _to, _value);\n\t\treturn true;\n\t}\n\n\tfunction approve(address _spender, uint256 _value) public returns(bool success){\n\t\tallowance[msg.sender][_spender] = _value;\n\t\temit Approve(msg.sender, _spender, _value);\n\t\treturn true;\n\t}\n\n\tfunction transferFrom(address _from, address _to, uint256 _value) public returns(bool success){\n\t\trequire(_value <= balanceOf[_from]);\n\t\trequire(_value <= allowance[_from][msg.sender]);\n\t\tbalanceOf[_from] -= _value;\n\t\tbalanceOf[_to] += _value;\n\t\tallowance[_from][msg.sender] -= _value;\n\t\temit Transfer(_from, _to, _value);\n\t\treturn true;\n\t}\n}",
  "sourcePath": "/Users/robelkedida/Documents/Blockchain-Projects/staking_dapp_/src/contracts/Tether_token.sol",
  "compiler": {
    "name": "solc",
    "version": "0.8.9+commit.e5eed63a.Emscripten.clang"
  },
  "schemaVersion": "3.4.14",
  "updatedAt": "2023-07-03T13:07:24.864Z",
  "networkType": "ethereum",
  "devdoc": {
    "kind": "dev",
    "methods": {},
    "version": 1
  },
  "userdoc": {
    "kind": "user",
    "methods": {},
    "version": 1
  }
}